:020000040800F2
:1000000058040020E1010008A70C0008AD0B00080F
:10001000A50C0008ED020008790E000800000000A1
:10002000000000000000000000000000AB0C000811
:10003000EF02000800000000A90C0008AD0C000849
:10004000FB010008FB010008FB010008FB010008A0
:10005000FB010008FB010008FB010008FB01000890
:10006000FB010008FB010008FB010008FB01000880
:10007000FB010008FB010008FB010008FB01000870
:10008000FB010008FB010008FB0100080000000064
:10009000000000000000000000000000FB0100085C
:1000A000FB010008FB010008FB010008FB01000840
:1000B000000000000000000000000000FB0100083C
:1000C000FB010008FB010008FB010008FB01000820
:1000D000FB010008FB010008FB0100080000000014
:1000E000FB010008FB010008000000000000000008
:1000F000000000000000000000000000FB010008FC
:100100000000000000000000FB01000800000000EB
:100110000000000000000000FB01000800000000DB
:10012000FB010008FB010008FB010008FB010008BF
:10013000FB010008000000000000000000000000BB
:1001400000000000000000000000000000000000AF
:10015000FB010008FB010008FB010008FB0100088F
:10016000000000000000000000000000000000008F
:10017000000000000000000000000000000000007F
:10018000FB010008FB010008000000000000000067
:1001900000000000FB01000800000000000000005B
:1001A000000000000000000000000000000000004F
:1001B000000000000000000000000000FB0100083B
:1001C000FB010008FB010008DFF810D000F07CF80C
:1001D00000480047010F0008AFF3008058040020DA
:1001E0000648804706480047FEE7FEE7FEE7FEE7D1
:1001F000FEE7FEE7FEE7FEE7FEE7FEE7350D000857
:10020000C90100082DE9F05F0546002092469B4693
:1002100088460646814640241BE02846414647461C
:10022000224600F041F853465A46C01A914110D375
:1002300011461846224600F028F82D1A67EB0108EF
:100240004F4622460120002100F01FF817EB00095D
:100250004E41201EA4F10104DFDC484631462A4607
:100260004346BDE8F09FD2B201E000F8012B491EE1
:10027000FBD270470022F6E710B513460A46044643
:100280001946FFF7F0FF204610BD202A04DB203A74
:1002900000FA02F1002070479140C2F1200320FAD9
:1002A00003F3194390407047202A04DB203A21FAD7
:1002B00002F00021704721FA02F3D040C2F120027F
:1002C0009140084319467047064C074D06E0E06828
:1002D00040F0010394E8070098471034AC42F6D38D
:1002E000FFF776FFA00F0008C00F0008FEE7704779
:1002F00070B5044600F0D0F80546601C02D00448F2
:100300000078044400F0C8F8401BA042FAD370BD46
:10031000000000202DE9F84F00224FF001080325CE
:100320004FF00F0E0B6808FA02F42340A3426ED17F
:100330004E68012E05D0022E03D0112E01D0122EB0
:1003400012D186684FEA420C05FA0CF7BE43CF681B
:1003500007FA0CF7374387604668A6430C79C4F365
:100360000014944034434460C668570005FA07FC03
:100370008C6826EA0C06BC403443C4604C68022CEE
:1003800001D0122C13D1D40800EB8404A346D4F876
:10039000209054074FEAD46A0EFA0AF629EA0609B1
:1003A0000E6906FA0AF646EA0906CBF820600468E8
:1003B0000E7924EA0C0406F00306BE4026430660CC
:1003C0004C68E4004CD5294C266846F480462660EB
:1003D000246822F0030604F480440094244C34443E
:1003E000A446D4F808489607370F0EFA07F6B44328
:1003F000204EB04201D100260BE01F4EB04201D189
:10040000012606E01D4EB04202D1022601E027E09F
:100410000726BE402643CCF80868194E34684F685A
:100420009C43FF0300D51C433460154E361D3468D1
:100430004F689C43BF0300D51C433460104E083600
:1004400034684F689C43FF0200D51C4334600C4E57
:100450000C3634684F689C43BF0200D51C4334609F
:10046000521C102AFFF45EAFBDE8F88F44380240FA
:100470000030014000000240000402400008024039
:10048000003C01400069084000D0012070470AB1DB
:10049000816170470904FBE70148806870470000EC
:1004A0000000002002488168027811448160704792
:1004B000000000200B4810B5016841F40071016094
:1004C000016841F480610160016841F4807101605C
:1004D000032000F063F8002000F006F800F024F894
:1004E000002010BD003C024070B50D4D04464FF495
:1004F0007A712878B1FBF0F00A490968B1FBF0F095
:1005000000F0DAFA48B9102C07D200222146501E1A
:1005100000F024F800206C6070BD012070BD000068
:10052000000000200C0000200B4882B0016841F45C
:1005300080410160006800F4804000900648001F80
:10054000016841F080510160006800F08050009027
:10055000072002B000F022B844380240F0B40E4B3D
:100560001B680C46C3F30223C3F10705042D00D911
:100570000425191D072901D2002300E0DB1E0126F6
:1005800006FA05F1491E214099409E40761E16400C
:100590003143F0BC00F07ABC0CED00E0064900F0FD
:1005A000070208684FF6FF03184040EA0220034A9A
:1005B00010430860704700000CED00E00000FA05F1
:1005C0002DE9F0470E46050065D0DFF81481D8F814
:1005D0000000F7B200F00F00B04207D288F80070B8
:1005E000D8F8000000F00F00B04254D128683D4C0C
:1005F000810712D5400703D5206840F4E050206001
:100600002878000703D5206840F460402060206807
:10061000A96820F0F000084320602878C0072DD09A
:10062000304968680839012812D0022813D00328FD
:1006300011D00968890700292DDA216821F003010A
:1006400001432160FFF728FF814641F2883A0EE01E
:1006500009688903EFE709688901ECE7FFF71CFFE8
:10066000A0EB0901514502D90320BDE8F0872068BD
:10067000696800F00C00B0EB810FEFD1D8F80010E2
:10068000404601F00F01B14207D90770006800F041
:100690000F00B04201D00120E7E72878400705D5D8
:1006A0002068E96820F4E0500843206028780007BB
:1006B00006D52068296920F4604040EAC100206026
:1006C00000F038F82168084AC1F30311515CC840B2
:1006D0000649086006480068FFF706FF0020C4E7E7
:1006E000003C024008380240880F00080C0000203F
:1006F000040000200448054900680968044AC1F361
:100700008221515CC84070470C000020083802402C
:10071000980F00080448054900680968044AC1F3B5
:100720004231515CC84070470C000020083802403C
:10073000980F0008154810B5006810F00C02144816
:1007400013D04110042A0FD0082A0ED10F4C241FB9
:100750002268236802F03F025B0207D52068C0F3DD
:100760008810A0FB010106E0084610BD2168C1F316
:100770008811A1FB00010023FFF744FD2168C1F3AC
:100780000141491C4900B0FBF1F010BD083802409E
:100790000024F4002DE9F84F05460078DFF800B397
:1007A000C04CC0074AD0DBF800105846C1F38101A5
:1007B000012908D00068C0F3810002280AD1201D59
:1007C0000068400206D52068800337D56868002895
:1007D00072D033E06868B0F5803F10D0B0F5A02F3C
:1007E000206810D020F480302060206820F4802021
:1007F00020606868A8B1FFF74FFE06460DE020684C
:1008000040F48030F4E740F480202060F7E700BF38
:10081000FFF742FE801B64286FD820688003F7D55D
:100820000CE0FFF739FE064605E000BFFFF734FE97
:10083000801B6428F0D820688003F7D42878DFF87C
:10084000688280074FF0000940D5DBF80010584659
:1008500011F00C0F09D00068C0F3810002280BD101
:100860008F48001F0068400206D42068800715D515
:10087000E868012820D111E0E868B8B10120C8F883
:100880000000FFF709FE064605E000BFFFF704FE83
:10089000801B0228C0D820688007F7D52068296906
:1008A00020F0F80040EAC10020600FE0C8F8009096
:1008B000FFF7F2FD064606E0EFE000BFFFF7ECFDB4
:1008C000801B022819D820688007F7D428780007F1
:1008D00022D5734E754869696C3679B10121016082
:1008E000FFF7DAFD074604E0FFF7D6FDC01B02283C
:1008F00003D830688007F7D50EE089E0C0F8009093
:10090000FFF7CAFD074604E0FFF7C6FDC01B02283B
:100910007ED830688007F7D42878400768D5DFF89C
:1009200080A100270AF1380ADAF80000C0000BD4D1
:10093000DAF8001041F08051CAF80010DAF800002F
:10094000012700F080500090594E3068C00510D447
:10095000306840F480703060FFF79EFD009005E045
:10096000FFF79AFD0099401A022851D83068C00557
:10097000F6D54B4EA868683601280FD00528306898
:1009800010D020F001003060306820F004003060AA
:10099000A868B8B1FFF780FD00900FE0306840F024
:1009A0000100F4E740F004003060F7E7FFF774FD62
:1009B0000099411A41F28830814266D83068800738
:1009C000F4D50EE0FFF768FD009007E0FFF764FD47
:1009D0000099411A41F28830814256D83068800728
:1009E000F4D42FB1DAF8001021F08051CAF80010C9
:1009F000A869D0B3DBF80010C1F3810102294CD003
:100A00000228484607D0C8F86000FFF745FD00E01F
:100A10003BE005463CE04746C8F86000FFF73CFD78
:100A2000064604E0FFF738FD801B02282DD8206819
:100A30008001F7D4F5E907010843E9681D4A490830
:100A400002EB0141AA6841EA82110843297C40EA8D
:100A50000160297D40EA01711148001F01600120F9
:100A60003866FFF719FD054605E014E0FFF714FDB1
:100A7000401B022809D820688001F7D50BE000BF91
:100A8000FFF70AFD401B022802D90320BDE8F88FBA
:100A900020688001F4D40020F8E70120F6E7000088
:100AA000083802400038024000004742800E4742AA
:100AB000007000400000FFFF10B5401EB0F1807FC5
:100AC00001D3012010BD4FF0E02460610F216017B9
:100AD00000F0DCF90020A06107202061002010BD9B
:100AE00070B5040004D094F83900002510B106E078
:100AF000012070BD84F83850204600F023F82420EF
:100B000084F839002068C16821F40051C160204692
:100B100000F01EF92068016921F49041016120680C
:100B2000416921F02A0141612068C16841F4005106
:100B3000C160E563202084F8390084F83A00002081
:100B400070BD000010B586B0044614216846FFF75A
:100B500091FB13492068884220D112480021026885
:100B600042F400320260006800F4003005900D4845
:100B70001038026842F001020260006800F00100D3
:100B800005900C2000900220CDE901010320039084
:100B90000720049069460448FFF7BCFB06B010BD6F
:100BA000004400404038024000000240FEE70000E0
:100BB00007490968C9070AD0054980390968C90782
:100BC00005D04FF060410A68002AFCD008707047D9
:100BD000800E00E02DE9F04186B014216846FFF751
:100BE00049FB2B480024016841F0040101600168C1
:100BF00001F004010591016841F080010160016884
:100C000001F080010591016841F001010160016876
:100C100001F001010591016841F0020101600068E5
:100C20001C4F00F002000590002220213846FFF7FB
:100C30002EFCDFF86480002220214046FFF727FCCD
:100C40004FF4005000901548CDE90104694614485E
:100C5000FFF760FB202501260095CDE90164694678
:100C600038460394FFF756FB0095CDE901646946C9
:100C700040460394FFF74EFB4020CDE9000469464F
:100C800040460294FFF746FB06B0BDE8F081000045
:100C900030380240000002400004024000002110F1
:100CA00000080240FEE7704770477047FFF7FABB45
:100CB00030B593B034216846FFF7DCFA14210DA853
:100CC000FFF7D8FA19480025016841F0805101600A
:100CD000006800F0805012901548016841F44041CE
:100CE00001600068022400F440401290012000904E
:100CF0004FF4A02001906005CDE9064008AA042029
:100D0000642182E81300CDE90B046846FFF742FD39
:100D10000DA90F2081E83100E002CDE91005032183
:100D20000DA8FFF74DFC13B030BD00004038024065
:100D3000007000400548016841F4700101600349FA
:100D40004FF00060803908607047000088ED00E0D7
:100D50002DE9F041044600680169E26821F4405140
:100D6000114301612169A068E26908436169114387
:100D700008432168CA6849F20C639A430243CA6077
:100D800020684169A26921F4407111434161E06921
:100D9000192764253226B0F5004F354A35492068B9
:100DA0004FF0000806D0884201D0904236D1FFF7BC
:100DB000B1FC35E0884201D0904202D1FFF7AAFC95
:100DC00001E0FFF797FC61684A18A0FB070148EBB8
:100DD0000803FFF717FA0146B0FBF5F00201B1FB7B
:100DE000F5F06FF01803584301EB800006EBC000EC
:100DF000B0FBF5F000F0F80002EB4002B1FBF5F0BB
:100E0000584301EB800006EBC000B0FBF5F000F0AA
:100E10000700216810448860BDE8F081FFF76AFC94
:100E200061688B0F8A00A0FB0701FFF7EBF9014611
:100E3000B0FBF5F06FF01802504301EB800006EBB9
:100E40000010B0FBF5F000F0F002B1FBF5F002EBA2
:100E50000012B1FBF5F06FF01803584301EB80006E
:100E600006EB0010B0FBF5F000F00F00D1E700003A
:100E70000014014000100140FEE70000014A024951
:100E800000F023B8ED0E0008100000200907090E3D
:100E9000002804DB00F1E02080F80014704700F027
:100EA0000F0000F1E02080F8141D704702E008C830
:100EB000121F08C1002AFAD170477047002001E0D4
:100EC00001C1121F002AFBD170472DE9F0411646DF
:100ED0000F460446002503E03946B047641C6D1CEC
:100EE00020780028F8D12846BDE8F081034A9142D5
:100EF00001D1FFF75DBE4FF0FF30704710000020BA
:100F0000FFF7D8FAFFF7D4FEFFF764FE164815493D
:100F10000C2201604FF4E131416000218160C16029
:100F2000C0E904128161C161FFF7DAFD0F4C40F6A0
:100F3000B83540212046FFF7A5FA58B100222021FC
:100F40002046FFF7A4FA0AA0FFF798FF2846FFF70C
:100F5000CFF9EEE7012220212046FFF798FA07A0FB
:100F6000F2E70000004400401400002000040240AA
:100F70006E6F6F62737461636C650A006F62737485
:100F800061636C650A0000000000000000000000C2
:100F9000010203040607080900000000010203041F
:100FA000C00F00080000002014000000AC0E000874
:100FB000D40F00081400002044040000BC0E0008F8
:100FC0000100000010000000000000000024F400F8
:040FD000000000001D
:04000005080001C925
:00000001FF
